:020000040800F2
:100000009855002471030008572900083D2800086E
:1000100055290008CD04000839350008000000000B
:10002000000000000000000000000000AD02000819
:10003000CF0400080000000009030008CD2B0008D1
:100040008B0300088B0300088B0300088B03000858
:100050008B0300088B0300088B0300088B03000848
:100060008B0300088B0300088B0300088B03000838
:100070008B0300088B0300088B0300088B03000828
:100080008B0300088B0300088B0300088B03000818
:100090008B0300088B0300088B0300088B03000808
:1000A0008B030008992D00088B0300088B030008C0
:1000B0008B0300088B0300088B0300088B030008E8
:1000C0008B0300088B0300088B0300088B030008D8
:1000D0008B0300088B0300088B0300088B030008C8
:1000E0008B0300088B030008000000008B0300084E
:1000F0008B0300088B0300088B0300088B030008A8
:100100008B0300088B0300088B0300088B03000897
:100110008B0300088B0300088B0300088B03000887
:100120008B0300088B0300088B0300088B03000877
:100130008B0300088B0300088B0300088B03000867
:1001400000000000000000000000000000000000AF
:100150008B0300088B0300088B0300088B03000847
:100160008B0300088B0300088B0300088B03000837
:100170008B0300088B0300088B03000800000000BD
:100180008B0300088B0300088B0300088B03000817
:100190008B0300088B0300088B0300088B03000807
:1001A0008B0300088B0300088B0300088B030008F7
:1001B0008B0300088B0300088B0300088B030008E7
:1001C0008B0300088B0300088B0300088B030008D7
:1001D0008B0300088B0300088B0300088B030008C7
:1001E0008B0300088B0300088B0300088B030008B7
:1001F0008B0300088B0300088B0300088B030008A7
:100200008B0300088B0300088B0300088B03000896
:100210008B0300088B0300088B0300088B03000886
:100220008B0300088B0300088B030008000000000C
:100230008B0300088B030008000000008B030008FC
:100240008B0300088B0300088B0300088B03000856
:100250008B0300088B0300088B0300088B03000846
:100260008B0300088B0300088B0300088B03000836
:100270008B0300088B0300088B03000800000000BC
:100280008B0300088B0300088B03000800000000AC
:10029000000000008B030008DFF80CD000F004F928
:1002A0000048004749370008985500242D4B19682D
:1002B0000868B0E8F04F80F30988BFF36F8F4FF004
:1002C000000080F3118870470000000008480068B3
:1002D000006880F308884FF0000080F3148862B64D
:1002E00061B6BFF34F8FBFF36F8F00DF00BF00BF5A
:1002F00008ED00E0DFF80C00016841F470010160D6
:10030000704700BF88ED00E0EFF30980BFF36F8F07
:10031000144B1A681EF0100F08BF20ED108A20E958
:10032000F04F106009B44FF0500072B680F311889E
:10033000BFF34F8FBFF36F8F62B604F071F84FF0C9
:10034000000080F3118809BC19680868B0E8F04F14
:100350001EF0100F08BFB0EC108A80F30988BFF3BD
:100360006F8F704738000024EFF30580704700005E
:100370000648804706480047FEE7FEE7FEE7FEE73F
:10038000FEE7FEE7FEE7FEE7FEE7FEE7AD2C00082E
:10039000990200082DE9F05F0546002092469B4631
:1003A00088460646814640241BE02846414647468B
:1003B000224600F069F853465A46C01A914110D3BC
:1003C00011461846224600F050F82D1A67EB010836
:1003D0004F4622460120002100F047F817EB0009A4
:1003E0004E41201EA4F10104DFDC484631462A4676
:1003F0004346BDE8F09F40EA01039B0703D009E0B4
:1004000008C9121F08C0042AFAD203E011F8013B00
:1004100000F8013B521EF9D27047D2B201E000F859
:10042000012B491EFBD270470022F6E710B5134698
:100430000A4604461946FFF7F0FF204610BD30B5C6
:100440000B46014600202022012409E021FA02F592
:100450009D4205D303FA02F5491B04FA02F528442C
:10046000151EA2F10102F1DC30BD202A04DB203A86
:1004700000FA02F1002070479140C2F1200320FAF7
:1004800003F3194390407047202A04DB203A21FAF5
:1004900002F00021704721FA02F3D040C2F120029D
:1004A0009140084319467047064C074D06E0E06846
:1004B00040F0010394E8070098471034AC42F6D3AB
:1004C000FFF7EEFE904F0008B04F0008FEE77047C0
:1004D00072B6FEE70B680022DFF8ECC1002B08BF04
:1004E00070472DE9F84FDFF8E4B14FF0B04A4FF014
:1004F000010E4FF003084FF00F090B680EFA02F4DB
:10050000234000F0D9800D7905F00305012D18BFB7
:10051000022D17D186684FEA420508FA05F726EA48
:100520000706CF6807FA05F545EA060585604568C0
:1005300025EA04040D79C5F3001505FA02F545EA2C
:10054000040444604C6838EA040409D0C5685400C7
:1005500008FA04F6B5438E6806FA04F42C43C46026
:100560000C7904F00304022C0DD1D40800EB8405AF
:100570002E6A5407E40E09FA04F7BE430F6907FA1E
:1005800004F434432C620568540008FA04F6B543B9
:100590000E7906F0030606FA04F42C4304604C6856
:1005A00014F4403F7DD0DBF8004044F00204CBF867
:1005B0000040DBF8004004F00204009422F0030441
:1005C00004F1B046D6F8084495072D0F09FA05F74F
:1005D00024EA0707A0F1B044B4F500343ED0A0F1FE
:1005E000B044B4F5013408BF012437D0A0F1B044C1
:1005F000B4F5023408BF022430D0A0F1B044B4F501
:10060000033408BF032429D0A0F1B044B4F5043466
:1006100008BF042422D0A0F1B044B4F5053408BFCB
:1006200005241BD0A0F1B044B4F5063408BF06245D
:1006300014D0A0F1B044B4F5073408BF07240DD09E
:10064000A0F1B044B4F5083408BF082406D0A0F1E6
:10065000B044B4F509340CBF09240A24AC403C432F
:10066000C6F80844DAF800404D689C4315F4801F32
:1006700018BF1C43CAF80040DAF804404D689C4398
:1006800015F4001F18BF1C43CAF80440DCF80440EE
:100690004D689C4315F4003F18BF1C43CCF8044040
:1006A00000E009E0DCF800404D689C4315F4803F11
:1006B00018BF1C43CCF800400B68521CD3407FF499
:1006C0001CAFBDE8F88F000080000058F4440258C9
:1006D00001480068000C70470010005C0148806809
:1006E000704700008C000024024881684268114471
:1006F000816070478C000024032010B500F0BCF826
:1007000001F030FA0F4A11681268C1F303230E4951
:10071000CB5C03F01F03D84002F00F02895C0B4A48
:1007200001F01F0120FA01F11160094908600F2052
:1007300000F010F800281CBF012010BD00F04CF89C
:10074000002010BD18440258584F00080C00002427
:100750000800002410B5102804468AB02AD20022CE
:100760000146192000F056F8192000F043F815480A
:1007700004601548016841F001010160006808A9A2
:1007800000F001000990684601F03AF901F0BCF967
:100790000E4940000E4AB0FBF1F0411E0D480260C8
:1007A00040F2E73241600021C0E90321816001F09D
:1007B000F0FD10B10AB0012010BD064801F00CFE9A
:1007C0000AB010BD8C000024F044025840420F00D3
:1007D00000000140C4010024054881B0016841F0D7
:1007E00002010160006800F00200009001B0704753
:1007F000F44402580028B8BF704700F01F010122DE
:1008000002FA01F14009800000F1E020C0F8001177
:1008100070470000174B4DF8044D1B68C3F30223CB
:10082000C3F1070CBCF1040F88BF4FF0040C1C1D72
:10083000072C34BF0023DB1E012404FA0CFCACF1AE
:10084000010C0CEA0101994004FA03F35B1E1A4003
:10085000114300284FEA0111B8BF00F00F0000F16A
:10086000E020ACBF80F8001480F8141D5DF8044B44
:10087000704700000CED00E0074A00F00700116827
:100880004FF6FF03194041EA002040F0FD7040F0B0
:1008900080601060704700000CED00E014490A68A9
:1008A00012F0040F07D1096801F00701814214BF5B
:1008B00001200020704770B50A6822F0070210433B
:1008C0000860FFF70BFF0B4D0446286810F4005F2B
:1008D0000BD1FFF703FF001BB0F57A7F01D9012090
:1008E00070BD286810F4005FF3D0002070BD0000D8
:1008F0000C4802580448025810B501F0B3F80549F5
:100900000968054AC1F30211515C01F01F01C8409A
:1009100010BD000020440258584F00085E490A6884
:10092000096802F003025D4BC1F305311B68DFF873
:1009300070C1C3F30013DCF800C00029CCF3CC0C69
:100940001CFB03F300EE103AB8EE400A7DD09FED99
:10095000551A554BF7EE000ACAB19FED542A012AE9
:1009600001D0022A4ED001EE901A1968F8EE611AF1
:10097000C2EE212AC1F3080101EE901AF8EE611AC5
:1009800040EE011A31EEA00A22EE800A4FE0484AFA
:10099000D2F800C01CF0200F1ED01268DFF814C17E
:1009A000C2F3C1022CFA02F201EE902AF8EE612A9B
:1009B00001EE901A1968F8EE611A82EEA12AC1F3CD
:1009C000080101EE901AF8EE611A40EE011A31EEBC
:1009D000A00A22EE000A2AE001EE901ADFED362A84
:1009E0001968F8EE611A82EEA12AC1F3080101EE3E
:1009F000901AF8EE611A40EE011A31EEA00A22EECA
:100A0000000A14E001EE901ADFED2C2A1968F8EEC6
:100A1000611A82EEA12AC1F3080101EE901AF8EEE4
:100A2000611A40EE011A31EEA00A22EE000A19689E
:100A3000C1F3462101EE101AB8EE411A31EE201A28
:100A4000C0EE011ABCEEE11A00E020E080ED001AD1
:100A50001968C1F3064101EE101AB8EE411A31EEE1
:100A6000201AC0EE011ABCEEE11A80ED011A1968D5
:100A7000C1F3066101EE101AB8EE411A71EE200AB8
:100A800080EE201ABCEEC10A80ED020A70470021F8
:100A90000160416081607047284402582C4402582C
:100AA0003C44025800000039384402580024744A7B
:100AB000004402580090D0030024744C20BCBE4B6C
:100AC0005E490A68096802F003025D4BC1F30551F3
:100AD0001B68DFF870C1C3F30023DCF800C00029F5
:100AE000CCF3CC0C1CFB03F300EE103AB8EE400A3A
:100AF0007DD09FED551A554BF7EE000ACAB19FED18
:100B0000542A012A01D0022A4ED001EE901A196807
:100B1000F8EE611AC2EE212AC1F3080101EE901A23
:100B2000F8EE611A40EE011A31EEA00A22EE800AB8
:100B30004FE0484AD2F800C01CF0200F1ED01268C7
:100B4000DFF814C1C2F3C1022CFA02F201EE902ABE
:100B5000F8EE612A01EE901A1968F8EE611A82EE39
:100B6000A12AC1F3080101EE901AF8EE611A40EED5
:100B7000011A31EEA00A22EE000A2AE001EE901AD4
:100B8000DFED362A1968F8EE611A82EEA12AC1F368
:100B9000080101EE901AF8EE611A40EE011A31EEEA
:100BA000A00A22EE000A14E001EE901ADFED2C2AD2
:100BB0001968F8EE611A82EEA12AC1F3080101EE6C
:100BC000901AF8EE611A40EE011A31EEA00A22EEF8
:100BD000000A1968C1F3462101EE101AB8EE411A55
:100BE00031EE201AC0EE011ABCEEE11A00E020E05E
:100BF00080ED001A1968C1F3064101EE101AB8EE33
:100C0000411A31EE201AC0EE011ABCEEE11A80ED55
:100C1000011A1968C1F3066101EE101AB8EE411A03
:100C200071EE200A80EE201ABCEEC10A80ED020AA5
:100C3000704700210160416081607047284402587C
:100C40002C440258444402580000003940440258E1
:100C50000024744A004402580090D0030024744CCD
:100C600020BCBE4B2DE9F84F044600680025FB4F21
:100C7000DFF8EC83C04310F0006F2E4620D1A06E49
:100C800058B1B0F5801F0DD0B0F5001F10D0B0F5F1
:100C9000401F18BF012519D011E0386840F400301A
:100CA000386013E0022104F1080001F057FE04E06F
:100CB000022104F1280001F0EDFE050006D02E46C9
:100CC0002088C04310F4807F09D025E0D8F80000C8
:100CD000A16E20F440100843C8F80000F0E7A06DB2
:100CE000052817D2DFE800F003080E141400386856
:100CF00040F4003038600BE0002104F1080001F0FE
:100D00002DFE04E0002104F1280001F0C3FE054699
:100D100045B100E001252E462088C04310F4007F35
:100D200009D02BE0D8F80000A16D20F0070008439F
:100D3000C8F80000F0E7E06D802817D004DC48B167
:100D400040280CD0012518E0C02818BFB0F5807FDE
:100D5000F8D111E0386840F4003038600CE004F15C
:100D600008004FF0000101F0F9FD04E0002104F15A
:100D7000280001F08FFE054645B12E462088DFF899
:100D8000E492C04310F4806F0AD030E0D8F800003D
:100D9000E16D20F4E07040EA0100C8F80000EDE7E2
:100DA000D4F8A800B0F5800F19D005DC58B1B0F523
:100DB000001F0DD0012519E0B0F5C00F18BFB0F528
:100DC000000FF7D111E0386840F4003038600CE0D3
:100DD00004F108004FF0000101F0C0FD04E0002123
:100DE00004F1280001F056FE054635B12E46208854
:100DF000C04310F4006F0BD031E0D9F80000D4F8F4
:100E0000A81020F4600040EA0100C9F80000EEE7F5
:100E1000D4F8AC00B0F1007F19D005DC58B1B0F1C6
:100E2000807F0DD0012519E0B0F1407F18BFB0F1EF
:100E3000806FF7D111E0386840F4003038600CE082
:100E400004F108004FF0000101F088FD04E00021EA
:100E500004F1280001F01EFE054635B12E4620683B
:100E6000C04310F0007F0BD022E0D9F80000D4F886
:100E7000AC1020F0E06040EA0100C9F80000EEE7A5
:100E8000E06C98B1102806D0202809D0302818BF6F
:100E900001250BD00BE0386840F40030386005E0E5
:100EA000022104F1080001F059FD054635B12E4636
:100EB0002088C04310F4805F08D02DE06A480168A4
:100EC000E26C21F0300111430160F1E7206EB0F5D2
:100ED000005F19D005DC58B1B0F5805F0DD0012559
:100EE00019E0B0F5405F18BFB0F5804FF7D111E0C1
:100EF000386840F4003038600CE004F108004FF02E
:100F0000000101F02BFD04E0002104F1280001F0B4
:100F1000C1FD054635B12E462088C04310F4005F60
:100F20000AD02DE0D8F80000216E20F4E04040EA1D
:100F30000100C8F80000EFE7606EB0F5403F1DD03B
:100F400008DCD8B1B0F5803F0BD0B0F5003F0FD032
:100F5000012514E0B0F5802F18BFB0F5A02FF7D110
:100F60000CE004F108004FF0010101F0F7FC04E08F
:100F7000012104F1280001F08DFD054635B12E4612
:100F80002088C04310F4804F0AD02EE0D8F800002B
:100F9000616E20F4E02040EA0100C8F80000EFE7AD
:100FA000D4F8B000B0F1405F1DD008DCD8B1B0F18A
:100FB000805F0BD0B0F1005F0FD0012514E0B0F1DD
:100FC000804F18BFB0F1A04FF7D10CE004F108003A
:100FD0004FF0010101F0C2FC04E0012104F12800FE
:100FE00001F058FD054635B12E462088C04310F467
:100FF000004F0BD022E0D9F80000D4F8B01020F058
:10100000E04040EA0100C9F80000EEE7206F98B127
:10101000B0F1805F05D0B0F1005F18BF012505D0A9
:101020000BE0386840F40030386005E0012104F13D
:10103000080001F093FC054635B12E462068C043F8
:1010400010F0807F12D029E0D8F80000216F20F046
:1010500040500843C8F80000F0E700002C44025854
:1010600050440258584402584C440258A06C98B15D
:10107000012806D0022809D0032818BF01250BD06B
:101080000BE0386840F40030386005E0022104F1DC
:10109000080001F063FC054645B12E462068DFF8E4
:1010A000F0B3C04310F4800F08D05DE0F948016848
:1010B000A26C21F0030111430160EFE7F6480068DC
:1010C00040F48071F4480160FFF708FB8246F24863
:1010D000006810F4807F0AD1FFF700FBA0EB0A0044
:1010E000642838D8EC48006810F4807FF4D09DBBA9
:1010F000DFF8A8A3DAF80000B4F8B41000F44070E8
:1011000001F44071884211D0DAF80000DAF80010DA
:1011100020F4407041F48031CAF80010DAF8001071
:1011200021F48031CAF80010CAF80000D4F8B400E5
:10113000B0F5807F20D1FFF7D1FA0090DAF80000F7
:1011400010F0020F18D1FFF7C9FA0099411A41F2C5
:101150008830814201D9032505E0DAF8000010F05B
:10116000020FF0D045B12E462078DFF834A3C043FB
:1011700010F0010F20D03EE0D4F8B4004FF44071DD
:1011800081431CBFDBF8000020F47C500BD0CBF86F
:101190000000DAF80000B4F8B410C1F30B01084302
:1011A000CAF80000E0E7DBF80010BE4A21F47C51E9
:1011B00002EA10100843EAE7E06F182819D006DCAD
:1011C000B8B1082808D010280DD0012512E0202839
:1011D00018BF2828F9D10CE004F108004FF00101F4
:1011E00001F0BCFB04E0012104F1280001F052FCF5
:1011F000054635B12E462078C04310F0020F0AD0C4
:1012000021E0DAF80000E16F20F0380040EA010048
:10121000CAF80000EFE7A06F062812D2DFE800F05E
:101220000F03090F0F0F012104F1080001F096FBD5
:1012300004E0012104F1280001F02CFC054645B131
:1012400000E001252E462078C04310F0040F0AD09C
:1012500022E0DAF80000A16F20F0070040EA010068
:10126000CAF80000EFE7D4F89400062812D2DFE8AD
:1012700000F00F03090F0F0F012104F1080001F026
:101280006DFB04E0012104F1280001F003FC054698
:1012900045B100E001252E462078C04310F0200F14
:1012A0000BD02FE0D9F80000D4F8941020F00700FC
:1012B00040EA0100C9F80000EEE7D4F89000B0F170
:1012C000405F1DD008DCD8B1B0F1805F0BD0B0F129
:1012D000005F0FD0012514E0B0F1804F18BFB0F1CE
:1012E000A04FF7D10CE004F108004FF0000101F02D
:1012F00035FB04E0022104F1280001F0CBFB054698
:1013000035B12E462078C04310F0400F0BD02FE0AF
:10131000DAF80000D4F8901020F0E04040EA010034
:10132000CAF80000EEE7D4F89C00B0F5406F1DD07D
:1013300008DCD8B1B0F5806F0BD0B0F5006F0FD0DE
:10134000012514E0B0F5805F18BFB0F5A05FF7D1BC
:101350000CE004F108004FF0000101F0FFFA04E096
:10136000022104F1280001F095FB054635B12E4617
:101370002078C04310F0800F0BD02FE0D9F8000088
:10138000D4F89C1020F4E05040EA0100C9F80000B5
:10139000EEE7D4F8A000B0F5C04F1DD008DCD8B1FE
:1013A000B0F5005F0BD0B0F5804F0FD0012514E0F1
:1013B000B0F5004F18BFB0F5204FF7D10CE004F1A5
:1013C00008004FF0000101F0C9FA04E0022104F125
:1013D000280001F05FFB054635B12E462078C0435A
:1013E00010F0080F0BD020E0D9F80000D4F8A010BE
:1013F00020F4604040EA0100C9F80000EEE7D4F8AC
:101400008400B0F5805F07D1022104F1280001F0CB
:1014100041FB002818BF0126DAF80000D4F8841038
:1014200020F440500843CAF800002078C04310F070
:10143000100F15D1D4F89800B0F5807F07D10221A4
:1014400004F1280001F026FB002818BF0126D9F876
:101450000000D4F8981020F440700843C9F8000048
:101460002068C04310F4002F26D1D4F8A40040B166
:10147000B0F5803F18D0B0F5003F18BF012519D056
:1014800019E0002104F1080001F068FA11E0000001
:10149000104402584C440258004802587044025804
:1014A00054440258CFFFFF00022104F1280001F04C
:1014B000F1FA054635B12E462068C04310F4802F5E
:1014C0000AD024E0D9F80000D4F8A41020F4403069
:1014D0000843C9F80000EFE7D4F88800B0F5801F92
:1014E00008D0B0F5001F0AD0B0F5401F18BF012585
:1014F0000BD00BE0386840F40030386005E0012183
:1015000004F1280001F0C6FA054635B12E462068E0
:10151000C04310F4803F0AD01EE0DAF80000D4F88F
:10152000881020F440100843CAF80000EFE7206D4F
:1015300028B1B0F5803F18BF012505D00BE0386811
:1015400040F40030386005E0022104F1080001F0A9
:1015500005FA054635B12E462068C04310F0005FFD
:1015600010D107E078480168226D21F480311143E1
:101570000160F1E7022104F1280001F08BFA002854
:1015800018BF01262068C04310F4003F13D1D4F8DF
:10159000800070B1B0F5807F07D0B0F5007F1CBF30
:1015A000B0F5407F012504D004E0386840F40030F5
:1015B00038603DB12E4620686FEA000010F4801FAD
:1015C00014D10AE0DAF80000D4F8801020F440705A
:1015D00040EA0100CAF80000EDE7D8F80000616FAA
:1015E00020F0004040EA0100C8F8000020686FEADF
:1015F000000010F0805F09D1DBF80000D4F8B810CB
:1016000020F4804040EA0100CBF8000020686FEA37
:10161000000010F4001F08D1D8F80000E16E20F09F
:10162000807040EA0100C8F8000020686FEA0000FE
:1016300010F0804F0DD1DBF8000020F40040CBF813
:101640000000DBF80000D4F8BC1040EA0100CBF841
:10165000000020686FEA000010F0004F07D13A4800
:101660000168626D21F0405141EA02010160206889
:101670006FEA000010F4000F09D1DAF80000D4F886
:101680008C1020F4400040EA0100CAF800002079E4
:101690004FF000056FEA000000F00100284307D179
:1016A000002104F1080001F059F9002818BF06468E
:1016B0002079C04300F00200284307D1012104F142
:1016C000080001F04BF9002818BF06462079C043F6
:1016D00000F00400284307D1022104F1080001F0C2
:1016E0003DF9002818BF06462079C04300F00800E5
:1016F000284307D1002104F1280001F0CBF900288C
:1017000018BF06462079C04300F01000284307D1D7
:10171000012104F1280001F0BDF9002818BF064698
:101720002079C04300F02000284305D1022104F1B4
:10173000280001F0AFF920B9002E04BF0020BDE859
:10174000F88F0120BDE8F88F4C4402587047000024
:10175000002804BF012070472DE9F05FDFF8689290
:1017600004460D46D9F8000000F00F00A8420CD244
:10177000D9F8000020F00F002843C9F80000D9F87C
:10178000000000F00F00A8427ED120788F4E10F0AC
:10179000040F0AD02069316801F07001884204D931
:1017A000316821F07001084330602078884F10F0D4
:1017B000080F0AD06069396801F07001884204D9C5
:1017C000396821F0700108433860207810F0100F5C
:1017D0000AD0A069396801F4E061884204D9396807
:1017E00021F4E061084338602078DFF8E8B110F0B8
:1017F000200F0DD0E069DBF8001001F07001884285
:1018000006D9DBF8001021F070010843CBF8000086
:10181000207810F0020F0AD0E068316801F00F0163
:10182000884204D9316821F00F01084330602078E4
:1018300010F0010F48D03068A16820F470600843B0
:10184000306060686449022828D003282BD00968DA
:1018500001282DD011F0040F58D0DFF880A1DAF85C
:10186000001021F007010843CAF80000FEF736FF18
:101870008046DAF80000616800F03800B0EBC10F74
:1018800022D0FEF72BFF00E040E0A0EB080141F280
:101890008830814210D90320BDE8F09F096811F417
:1018A000003FDAD132E0096811F0007FD5D12DE098
:1018B00011F4807FD1D129E0DAF80000616800F0EE
:1018C0003800B0EBC10FDCD1207810F0020F0AD045
:1018D000E068316801F00F01814204D9316821F0DC
:1018E0000F0108433060D9F8000000F00F00A84253
:1018F0000FD9D9F8000020F00F002843C9F80000E4
:10190000D9F8000000F00F00A84202D00120BDE885
:10191000F09F207810F0040F0AD02069316801F0A0
:101920007001814204D9316821F0700108433060B0
:10193000207810F0080F0AD06069396801F0700152
:10194000814204D9396821F0700108433860207859
:1019500010F0100F0AD0A069396801F4E0618142EB
:1019600004D9396821F4E06108433860207810F028
:10197000200F0DD0E069DBF8001001F0700181420A
:1019800006D9DBF8001021F070010843CBF8000005
:1019900000F0E8F83168C1F3032211498A5C02F0D3
:1019A0001F02D040326802F00F02895C0D4A01F03C
:1019B0001F0120FA01F111600B4908600B48006813
:1019C000BDE8F05FFEF7C6BE002000521844025882
:1019D0001C44025820440258004402581044025843
:1019E000584F00080C000024080000248C0000243C
:1019F0000248016841F40021016070470044025828
:101A00003F220260124A126802F007024260114A45
:101A1000136803F470638360136803F00F03C360FB
:101A2000126802F0700202610B4A136803F070033F
:101A30004361126802F4E0628261084A126802F0AF
:101A40007002C2610648006800F00F00086070472D
:101A500010440258184402581C44025820440258AA
:101A6000002000524DF804ED00F07CF80B4A11689C
:101A70000B4BC1F30321595C01F01F0120FA01F166
:101A80001068084A00F00F00185C00F01F0021FAEF
:101A900000F01060044A11605DF804FB184402581D
:101AA000584F00080C000024080000244DF804EDF5
:101AB00000F058F80F490A680968C2F303230E4A78
:101AC000D35C03F01F03D84001F00F010B4B515CB6
:101AD00001F01F0120FA01F11960094B1860094853
:101AE0000068C0F30210105C00F01F0021FA00F043
:101AF0005DF804FB18440258584F00080C000024FD
:101B0000080000241C4402584DF804ED00F02AF8A7
:101B10000F490A680968C2F303230E4AD35C03F035
:101B20001F03D84001F00F010B4B515C01F01F0166
:101B300020FA01F11960094B186009480068C0F3E8
:101B40000220105C00F01F0021FA00F05DF804FB99
:101B500018440258584F00080C00002408000024C4
:101B60001C4402585B480068DFF86CC15B4B10F006
:101B700038010BD008294FEA2C1008BF70471029F4
:101B800004BF5748704718290BD07047186810F0E9
:101B9000200F1DBF1868C0F3C1002CFA00F060468A
:101BA00070474DF8044D4F480168006801F003018B
:101BB0004D4AC0F3051012684C4C02F00102246833
:101BC0000028C4F3CC0414FB02F200EE102AB8EE95
:101BD000400A04BF5DF8044B7047DFED450A454AF3
:101BE000B7EE001AC9B19FED442A012901D002299C
:101BF0004AD001EE900A1068F8EE611AC2EE212A6E
:101C0000C0F3080001EE900AF8EE611A40EE201AC7
:101C100031EE810A22EE800A4BE0196811F0200FA4
:101C20001CD01968C1F3C1012CFA01F101EE901A20
:101C3000F8EE612A01EE900A1068F8EE611A82EE61
:101C4000A12AC0F3080001EE900AF8EE611A40EEF6
:101C5000201A31EE810A22EE000A2AE001EE900AF3
:101C6000DFED262A1068F8EE611A82EEA12AC0F391
:101C7000080001EE900AF8EE611A40EE201A31EEEB
:101C8000810A22EE000A14E001EE900ADFED1C2A20
:101C90001068F8EE611A82EEA12AC0F3080001EE86
:101CA000900AF8EE611A40EE201A31EE810A22EE17
:101CB000000A10685DF8044BC0F34620401C00EE9B
:101CC000900AF8EE600A80EE201ABCEEC10A10EE0F
:101CD000100A7047104402580090D0030044025884
:101CE00040787D01284402582C440258344402585C
:101CF00000000039304402580024744A0024744C17
:101D000020BCBE4B0648006810F4806F08BF7047C7
:101D100010B5FFF71BFD03494FF48060086010BD4C
:101D20006444025868440258002804BF01207047E8
:101D30002DE9F05F04460078DFF8F483FD4F10F0E2
:101D4000010FFD4D58D0D8F80000396800F0380078
:101D5000102819D0182804BF01F00300022813D05E
:101D60006068B0F5803F04BF286840F4803014D02C
:101D700010B1B0F5A02F1BD0286820F48030286067
:101D8000286820F4802008E0286810F4003F33D051
:101D90006068002800F0D3822EE028606068D0B12F
:101DA000FEF79CFC0646286810F4003F08D023E0AC
:101DB000286840F480202860286840F48030ECE7F0
:101DC000FEF78CFC801B642800F20F82286810F458
:101DD000003FF5D010E0FEF781FC0646286810F4BD
:101DE000003F09D0FEF77AFC801B642800F2FD81D9
:101DF000286810F4003FF5D1207841F20309CF4E56
:101E000010F0020F7ED0D8F80000396810F03800CA
:101E100014D0182808BF11F0030F0FD0E068D0B31A
:101E2000296821F0190141EA00002860FEF756FCFC
:101E30008246286810F0040F35D03FE0286810F083
:101E4000040F03D0E068002800F079822868E16878
:101E500020F0190008432860FEF740FC82462868FD
:101E600010F0040F0AD1FEF739FCA0EB0A0002289B
:101E700000F2BB81286810F0040FF4D0FEF728FCB4
:101E8000484509D8206940281FD0316821F47C31A9
:101E900041EA00301EE01FE03068217C20F0FE4067
:101EA00040EA016016E0FEF719FCA0EB0A000228E8
:101EB00000F29B81286810F0040FF4D0FEF708FCB4
:101EC0004845E9D820694028DFD1306820F47C30CB
:101ED00040F40030306015E0286820F001002860F0
:101EE000FEF7FCFB8246286810F0040F0AD0FEF7CC
:101EF000F5FBA0EB0A00022800F27781286810F0B9
:101F0000040FF4D1207810F0100F69D0D8F8000039
:101F1000396800F03800DFF828B2082814D01828F3
:101F200004BF01F0030001280ED0E06900282868F2
:101F300043D040F080002860FEF7D0FB824628683E
:101F400010F4807F27D030E0286810F4807F1CBF19
:101F5000E069802840F0F381FEF7BAFB48450FD8CE
:101F6000206A202805D1306820F0F84040F08040F9
:101F700004E0316821F0F84141EA806030602FE0F0
:101F8000DBF8000094F8201020F07C5040EA01605B
:101F9000CBF8000024E0FEF7A1FBA0EB0A0002282A
:101FA00072D8286810F4807FF5D0FEF791FB484581
:101FB000E6D8206A2028DCD1D5E720F08000286010
:101FC000FEF78CFB0646286810F4807F08D0FEF7E9
:101FD00085FB801B022857D8286810F4807FF6D133
:101FE000207810F0080F33D0DFF85891606900288E
:101FF000D9F8000016D040F00100C9F80000FEF743
:102000006DFB0646D9F8000010F0020F20D1FEF754
:1020100065FB801B022837D8D9F8000010F0020FAA
:10202000F5D015E020F00100C9F80000FEF756FBDE
:102030000646D9F8000010F0020F09D0FEF74EFB5B
:10204000801B022820D8D9F8000010F0020FF5D12B
:10205000207810F0200F2BD0A0690028286814D019
:1020600040F480502860FEF739FB0646286810F4DB
:10207000005F1DD1FEF732FB801B022804D82868C0
:1020800010F4005FF6D013E07AE020F4805028606E
:10209000FEF724FB0646286810F4005F08D0FEF720
:1020A0001DFB801B02286BD8286810F4005FF6D156
:1020B000207810F0040F77D0234E306840F4807001
:1020C0003060FEF70BFB8146306810F4807F09D149
:1020D000FEF704FBA0EB0900642851D8306810F427
:1020E000807FF5D0A068DFF864A0012804BFDAF88B
:1020F000000040F001000CD008B1052828D0DAF823
:10210000000020F00100CAF80000DAF8000020F01A
:102110000400CAF80000A06841F2883678B3FEF7E0
:10212000DDFA8146DAF8000010F0020F1BD03BE028
:1021300010440258284402580044025804440258EB
:102140000C44025874440258004802587044025823
:10215000DAF8000040F00400CAF80000DAF80000E5
:1021600040F00100D5E7FEF7B9FAA0EB0900B04254
:102170003BD8DAF8000010F0020FF4D014E000E0D1
:1021800033E0FEF7ABFA8146DAF8000010F0020FF8
:102190000AD0FEF7A3FAA0EB0900B04225D8DAF87E
:1021A000000010F0020FF4D1616A00297ED0D8F847
:1021B0000000DFF8D49100F03800182809F1040875
:1021C000A9F1040673D02868022920F080702860E5
:1021D0000ED0FEF783FA0446286810F0007F65D021
:1021E000FEF77CFA001B02287CD90320BDE8F09F93
:1021F000FEF774FA8246286810F0007F09D0FEF7D7
:102200006DFAA0EB0A000228EFD8286810F0007FD2
:10221000F5D13868E16A20F0F30020F4407040EA1C
:102220000110A16A0843386094F834004FF4FE02AC
:10223000218E4002491EA0F5007000F47E40C1F3DB
:1022400008010843218F491E02EA0141084394F81E
:102250003C101202491E02EA01610843C9F800005D
:10226000306820F001003060D8F80000A16C6FF3F6
:10227000CF0040EAC100C8F800003068216C20F0AF
:102280000C00084330603068616C20F002000843A5
:102290003060306840F480303060306840F40030A6
:1022A0003060306840F48020306001E069E01FE079
:1022B000306840F001003060286840F0807028608D
:1022C000FEF70CFA0446286810F0007F59D1FEF79B
:1022D00005FA001B022888D8286810F0007FF6D085
:1022E0004FE0FFE7286810F0007F7FF479AF48E007
:1022F0003A68D9F80000012921D0A36A02F003014D
:1023000099421CD1E16AC2F30512914217D1226BA6
:10231000C0F30801521E914211D1616BC0F34622F5
:10232000491E91420BD1A16BC0F30642491E914256
:1023300005D1E16BC0F30660491E814202D0012045
:10234000BDE8F09FD8F80000A16CC0F3CC0081423A
:1023500017D0306820F001003060FEF7BFF9054665
:10236000FEF7BCF9A842FBD0D8F80000A16C6FF3CF
:10237000CF0040EAC100C8F80000306840F001001A
:1023800030600020BDE8F09F30440258704770472D
:102390007047002804BF0120704710B50446006C48
:1023A00020B90020E063204600F015F802202064E8
:1023B0002068211D00F0F6FC0120E0666064A06446
:1023C000E06420656065A065E06520666066A066E3
:1023D0002064002010BD7047016C01291CBF012042
:1023E0007047022101640168CA6842F00102CA60B4
:1023F0000068A0F18041B1F5803118BFB0F1804F85
:1024000023D0A0F18041B1F580611CBFA0F18041D3
:10241000B1F5006119D0A0F18041B1F540611CBF58
:10242000A0F18041B1F582310FD0A0F18041B1F52A
:10243000C0511CBFA0F18041B1F5A03105D00168A9
:1024400041F001010160002070478168034A11409A
:10245000062918BFB1F5803FF5D0F0E7070001006D
:10246000704770B50446006801694FF0000511F02F
:10247000020F1CBFC16811F0020F13D06FF00201F0
:1024800001610120E0612068806910F0030F20469F
:1024900002D0FFF7E5FF04E000F0A8F8204600F0C6
:1024A000A6F8E5612068016911F0040F1CBFC1683E
:1024B00011F0040F13D06FF0040101610220E061FC
:1024C0002068806910F4407F204602D0FFF7C8FFE3
:1024D00004E000F08BF8204600F089F8E561206800
:1024E000016911F0080F1CBFC16811F0080F13D06B
:1024F0006FF0080101610420E0612068C06910F0FC
:10250000030F204602D0FFF7ABFF04E000F06EF8A7
:10251000204600F06CF8E5612068016911F0100FA9
:102520001CBFC16811F0100F13D06FF010010161D2
:102530000820E0612068C06910F4407F204602D086
:10254000FFF78EFF04E000F051F8204600F04FF84E
:10255000E5612068016911F0010F1CBFC16811F02D
:10256000010F05D06FF001010161204600F040F835
:102570002068016911F0800F1CBFC16811F0800F45
:1025800005D06FF0800101612046FFF700FF206851
:10259000016911F4807F1CBFC16811F0800F05D064
:1025A0006FF4807101612046FFF7F0FE2068016939
:1025B00011F0400F1CBFC16811F0400F05D06FF043
:1025C00040010161204600F01CF82068016911F00B
:1025D000200F1ABFC16811F0200F70BD6FF02001ED
:1025E00001612046BDE87040FFF7D2BE70477047DA
:1025F0000068A0F18041B1F5803118BF7047FEF747
:1026000073B87047D0F88410012904BF02207047C6
:102610000121C0F884102421C0F8881001680A68DC
:102620000B6823F001030B6022F000510022426688
:10263000036819602021C0F88810C0F88420104673
:10264000704770B50446D0F88400012804BF02200A
:1026500070BD0120C4F884002420C4F888002068DC
:102660000568026822F0010202602068826822F098
:10267000606211438160204600F0F8FB206805602D
:102680002020C4F888000020C4F8840070BD70B514
:102690000446D0F88400012804BF022070BD012048
:1026A000C4F884002420C4F8880020680568026803
:1026B00022F0010202602068826822F06042114329
:1026C0008160204600F0D2FB206805602020C4F81D
:1026D00088000020C4F8840070BD002804BF0120D9
:1026E000704710B50446D0F8880028B90020C4F817
:1026F0008400204600F028F82420C4F888002068D0
:10270000016821F001010160204600F0CBFC0128A6
:1027100008BF10BDA06A00281CBF204600F0D0FBF7
:102720002068416821F4904141602068816821F06F
:102730002A0181602068016841F0010101602046A2
:10274000BDE8104000F029BC70B5B6B005460024C5
:102750006846C02130943194329433943494FDF718
:1027600063FE28680226304DA0F1B041B1F540610A
:1027700031D0A0F18041B1F588311CBF36B070BDB9
:10278000012100201F94CDE900106846FEF76AFA87
:10279000002818BFFDF79CFE2448016841F0100195
:1027A0000160006800F010003590286840F00200D9
:1027B0002860286830A900F0020035904FF44040AE
:1027C00030900420CDE93164CDE933401848FDF75D
:1027D00081FE36B070BD002025940421CDE90010A3
:1027E0006846FEF73FFA002818BFFDF771FE114852
:1027F000016841F008010160006800F008003590B0
:10280000286840F001002860286830A900F0010025
:1028100035904FF4C06030900320CDE93164CDE9AC
:1028200033400548D3E70000E0440258F044025822
:1028300000040258F444025800000258FEE7000069
:102840000D4881B0016841F080010160016801F02C
:1028500080010091016841F002010160016801F00E
:1028600002010091016841F001010160006800F07F
:102870000100009001B07047E044025819480C2252
:10288000174910B501604FF4E131416000218160CA
:10289000C160C0E9041281610162416281624166E6
:1028A000FFF71BFF002818BFFDF712FE00210D489F
:1028B000FFF7EDFE002818BFFDF70AFE00210948CA
:1028C000FFF7BFFE002818BFFDF702FE0548FFF71F
:1028D00099FE002808BF10BDBDE81040FDF7F8BD07
:1028E000000C00589C00002419480C22174910B510
:1028F00001604FF4E131416000218160C160C0E9B5
:1029000004128161C161016241628162FFF7E5FEEB
:10291000002818BFFDF7DCFD00210D48FFF7B7FECA
:10292000002818BFFDF7D4FD00210948FFF789FEF4
:10293000002818BFFDF7CCFD0548FFF763FE00280F
:1029400008BF10BDBDE81040FDF7C2BD001001403A
:1029500030010024FEE7FFF7D5F9FEE72DE9F04747
:10296000DFF81C91044600278846D9F800000321AF
:1029700031EA000004BF0120BDE8F087414D28681E
:1029800020F080602860FDF7A9FE0646286810F058
:10299000006F08D0FDF7A2FE801B022865D82868CA
:1029A00010F0006FF6D1D9F80000216820F47C30D7
:1029B00040EA0130C9F80000207A4FF4FE02A188F5
:1029C0004002491EA0F5007000F47E40C1F30801EA
:1029D0000843A189491E02EA01410843217C1202F1
:1029E000491E02EA01610843274908602748016837
:1029F000626921F0C001114301600168A26921F000
:102A0000200111430160016821F01001016020499B
:102A10000A68E3696FF3CF0242EAC3020A60016801
:102A200041F010010160B8F1000F14D00168B8F155
:102A3000010F0CBF41F4801141F4001101602868BE
:102A400040F080602860FDF749FE0446286810F0D9
:102A5000006F05D010E0016841F400210160EEE74D
:102A6000FDF73CFE001B022802D90320BDE8F087D9
:102A7000286810F0006FF3D03846BDE8F0870000FA
:102A80002844025800440258384402582C44025842
:102A90003C4402582DE9F047DFF81C91044600271A
:102AA0008846D9F80000032131EA000004BF012064
:102AB000BDE8F087414D286820F080502860FDF780
:102AC0000DFE0646286810F0005F08D0FDF706FEF0
:102AD000801B022865D8286810F0005FF6D1D9F86D
:102AE0000000218820F07C7040EA0150C9F8000005
:102AF000207A4FF4FE02A1884002491EA0F5007022
:102B000000F47E40C1F308010843A189491E02EA8E
:102B100001410843217C1202491E02EA0161084377
:102B20002749086027480168626921F44061114320
:102B300001600168A26921F400711143016001681C
:102B400021F48071016020490A68E3696FF3CF02C4
:102B500042EAC3020A60016841F480710160B8F181
:102B6000000F14D00168B8F1010F0CBF41F400014F
:102B700041F080710160286840F080502860FDF7C6
:102B8000ADFD0446286810F0005F05D010E0016834
:102B900041F480010160EEE7FDF7A0FD001B022873
:102BA00002D90320BDE8F087286810F0005FF3D059
:102BB0003846BDE8F0870000284402580044025817
:102BC000404402582C44025844440258502010B546
:102BD00072B680F31188BFF34F8FBFF36F8F62B669
:102BE00001F0AAFF18B104494FF08050086000209E
:102BF00080F3118810BD000004ED00E030B59DB0F9
:102C00004C216846FDF710FC002414941594022012
:102C100016941794189419941A941B94FDF73EFE79
:102C20002048016821F00101016000681E48016828
:102C300041F440410160016801F440411391016891
:102C400011F4005FFBD001200090402500040190AA
:102C5000022009900A90CDE90B050D900E900F907F
:102C60000C20CDE9100468461294FFF75DF808B116
:102C700072B6FEE73F2014900320CDE9150408202A
:102C8000CDE91705C0010221CDE9195014A81B9503
:102C9000FEF75EFD08B172B6FEE7FEF7A9FE1DB0B5
:102CA00030BD00002C040058184802582C48016818
:102CB00041F4700101602B4A106800F00F000728F2
:102CC00005D2106820F00F0040F007001060264980
:102CD000086840F001000860244B002018600B6871
:102CE000DFF88CC003EA0C030B60136803F00F03DA
:102CF000072B05D9136823F00F0343F00703136074
:102D00001C4A1060121D1060121D10601B4B1A4AE5
:102D10001A601B1D1A4A1A601B1D1A4A1A601B1DD5
:102D200018601B1D1A601B1D18601B1D1A601A1DE0
:102D300010600A6822F480220A6013490860134870
:102D400000686FF30F00B0F1005F03D2104901205B
:102D5000C1F8080143F2D2000E4908607047000034
:102D600088ED00E000200052004402581044025850
:102D70007FEDF6EA18440258000202022844025885
:102D80000000FF0180020101604402580010005C55
:102D900000800051004000520148FFF762BB000074
:102DA000C40100242DE9F0030268284BDFF8A0904D
:102DB000DFF8A0C09842284D284C18BFB0F1804FD2
:102DC00007D0484518BF604503D0A84218BFA042AD
:102DD00004D14E6822F0700246EA0202204E214FD2
:102DE0009842DFF8848018BFB0F1804F0CD048457E
:102DF00018BF604508D0A84218BFA04204D0B04216
:102E00001CBFB842404505D1D1F80CC022F4407235
:102E10004CEA0202D1F814C022F0800242EA0C020D
:102E200002608A68C2620A688262984218BFA04241
:102E300004D0B0421CBFB842404501D109690163CA
:102E40004FF001014161BDE8F0037047000001400F
:102E50000004004000080040000C00400004014055
:102E6000004001400044014000480140416E29B942
:102E70000121A0F86A10A0F8681070474DF8044DC1
:102E8000026891689268C1F34261DFF830C0520F66
:102E90001CF802301C010CF108039A5CB4FBF2F23E
:102EA000A0F86A201CF80120595C1201B2FBF1F174
:102EB000A0F868105DF8044B70470000804F0008D0
:102EC00090F8281011F0010F06D001684A68C36A13
:102ED00022F400321A434A6090F8281011F0020FD1
:102EE00006D001684A68036B22F480321A434A60B4
:102EF00090F8281011F0040F06D001684A68436B5F
:102F000022F480221A434A6090F8281011F0080F2A
:102F100006D001684A68836B22F400421A434A6073
:102F200090F8281011F0100F06D001688A68C36B62
:102F300022F480521A438A6090F8281011F0200F72
:102F400006D001688A68036C22F400521A438A6032
:102F500090F8281011F0400F11D001684A68436CB6
:102F600022F480121A434A60416CB1F5801F06D1E9
:102F700001684A68836C22F4C0021A434A6090F8E0
:102F8000281011F0800F08BF704701684A68C06CB4
:102F900022F400221043486070472DE9F8430025D1
:102FA0000446C0F89050FDF799FB80462068006801
:102FB0006FF07E474FF0200610F0080F17D0002268
:102FC000434631042046009700F062FA78B1206849
:102FD00050E8001F21F0800140E80012002AF6D1DD
:102FE000C4F888600320C4F88450BDE8F8832068E2
:102FF000006810F0040F22D0002243464FF48001F5
:103000002046009700F044FAC8B1206850E8001F3D
:1030100021F4907140E80012002AF6D120680830AF
:1030200050E8001F21F0010140E80012002AF5D10C
:10303000C4F88C600320C4F88450BDE8F883C4F859
:103040008860C4F88C60E56625670020C4F8845069
:10305000BDE8F883016851E8002F22F4907241E83E
:103060000023002BF6D10168083151E8002F22F02F
:10307000010222F0805241E80023002BF3D1C16EFF
:10308000012908D1016851E8002F22F0100241E81F
:103090000023002BF6D12021C0F88C100021C1663E
:1030A000416770472DE9F043044600680025F14A66
:1030B00087B02369A168D4F81CC01943636943EA47
:1030C0000C0319430368DFF8B0C303EA0C03194388
:1030D000016020684168E36821F440511943416070
:1030E0002168A06991421CBF236A18438B6823F4AE
:1030F000306323F06E43184388602068C16A636AB6
:1031000021F00F011943C1622068DC49A0F180431E
:10311000B3F588332FD0A0F18043B3F588433BD07B
:10312000A0F18043B3F5904340D0A0F18043B3F5C4
:10313000984345D0A0F18043B3F5A0434AD0A0F115
:103140008043B3F58A334FD0A0F18043B3F5F04309
:103150005ED0A0F18043B3F5F84363D0904279D1BB
:10316000091D096801F00701062973D2DFE801F0A3
:1031700066686A6C6E70096801F03801182963D0BE
:1031800005DCE9B308295BD010295BD062E0202977
:1031900061D028295CD05DE0096801F007010629AB
:1031A00058D2DFE801F0494D4F515355096801F0FD
:1031B000070106294ED2DFE801F03F434547494B5E
:1031C000096801F00701062944D2DFE801F035392A
:1031D0003B3D3F41096801F0070106293AD2DFE88B
:1031E00001F02B2F31333537096801F038011829E8
:1031F0002AD006DC21B1082922D0102922D029E0CA
:1032000004E0202927D0282922D023E0012122E030
:10321000096801F0070106291CD2DFE801F00D1151
:1032200013151719096801F00701062912D2DFE802
:1032300001F00307090B0D0F00210CE002210AE049
:10324000042108E0082106E0102104E0202102E02A
:10325000402100E08021DFF828C28A4E0027DFF8F5
:10326000289290424FEA2C1357D1102921D006DC26
:1032700002290ED0042910D0082914D0EAE0202910
:1032800008BF9C4623D0402908BF4FF4004C1ED0F5
:10329000E0E0FDF731FB844616E06846FDF73EFBB3
:1032A000DDF804C010E003A8FDF70AFCDDF810C04B
:1032B0000AE0D9F8000010F0200F08D0D9F800007B
:1032C000C0F3C1002CFA00FCBCF1000F6FD0606AA3
:1032D00036F810206668BCFBF2F006EB460181422E
:1032E00098BFB0EB063F78D8002360461946FDF73B
:1032F00051F80902020241EA1061700810183246C2
:1033000079410023FDF746F8604AA0F540718A42F2
:1033100024BF2168C8604AD29CE0E0694FF6EF788C
:10332000B0F5004F08D0082972D057DCF1B301295D
:1033300063D0042965D08DE008291FD005DC81B158
:10334000012911D0042913D084E010291CD0202990
:1033500008BF9C4626D0402908BF4FF4004C21D01E
:1033600078E0FEF7A3FB01E0FEF7CEFB844616E013
:103370006846FDF7D3FADDF804C010E003A8FDF7B6
:103380009FFBDDF810C00AE0D9F8000010F0200F14
:1033900008D0D9F80000C0F3C1002CFA00FCBCF141
:1033A000000F5CD0606A36F8100001E022E056E0C1
:1033B000BCFBF0F04100606801EB5001B1FBF0F0A4
:1033C000A0F11001414545D84FF6F0710140C0F31E
:1033D000420008432168C86041E03BE010291DD04D
:1033E000202908BF9C4627D0402908BF4FF4004C35
:1033F00022D02FE0FEF75AFB01E0FEF785FB844662
:1034000017E06846FDF78AFADDF804C011E0FFE72F
:1034100003A8FDF755FBDDF810C00AE0D9F800005D
:1034200010F0200F08D0D9F80000C0F3C1002CFA2A
:1034300000FCBCF1000F12D0606A36F81000BCFB33
:10344000F0F1606801EB5001B1FBF0F0A0F1100168
:10345000414501D9012502E0216880B2C860012000
:10346000A4F86A00A4F8680028466767A76707B051
:10347000BDE8F083000C0058F369FFCF54440258B4
:103480000090D003684F000800440258FFFC0F0072
:103490002DE9F0470446006898461646089D0F46F9
:1034A000C06931EA00000CBF01200020B04208BF13
:1034B0004FF000093DD1B5F1FF3F31D0FDF70EF9D6
:1034C000A0EB0800A84215D8A5B12068016811F04A
:1034D000040F25D0C16911F0080F0ED00825056230
:1034E0002046FFF7B7FDC4F890500120C4F884903F
:1034F000BDE8F0870320BDE8F087C06910F4006FD5
:103500000ED021684FF4006008622046FFF7A2FD4C
:103510002020C4F890000320C4F88490BDE8F08710
:103520002068C06937EA00000CBF01200020B042CB
:10353000C1D00020BDE8F087FEE700000FB4054BC6
:1035400010B503A9044A029800F018F810BC5DF801
:1035500014FB0000353700089800002402E008C87A
:10356000121F08C1002AFAD170477047002001E0FD
:1035700001C1121F002AFBD1704700002DE9FF4F47
:103580008BB09A460F460546002606E025280BD04C
:1035900052460D9990476D1C761C28780028F5D16D
:1035A0000FB03046BDE8F08F0024A04601226049EC
:1035B00000E0044315F8013F203B02FA03F0084203
:1035C000F7D128782E2817D115F8010F44F00404FC
:1035D0002A280ED06FF02F022878A0F13001092997
:1035E0000AD808EB880102EB410100EB01086D1CD1
:1035F000F2E757F8048B6D1C287869283ED006DC6A
:103600000028CDD063280BD0642804D136E073287D
:1036100010D075284BD052460D999047761C85E006
:1036200017F8040B8DF8000000208DF80100E94622
:10363000012003E057F8049B4FF0FF3061074FF083
:10364000000401D40AE0641C44450DDA8442FADB2C
:1036500019F804100029F6D106E0641C8442FCDB52
:1036600019F804100029F8D1264404E019F8010BD8
:1036700052460D999047641EF8D257E001CF4FF0A3
:103680000A0B002802DA40422D2102E0210504D570
:103690002B218DF82410012103E0E10705D0202122
:1036A000F7E70DF1200908910CE00021F9E701CFBF
:1036B0004FF00A0BF9E75946FCF7C1FE01F1300261
:1036C00009F8012D0028F6D1ADEB090000F1200B1F
:1036D000600701D44FF00108D84502DDA8EB0B00CC
:1036E00000E000208046002406E009A85246005D64
:1036F0000D999047641C761C08988442F5DB04E021
:10370000302052460D999047761CB8F10001A8F17F
:103710000108F5DC05E019F8010B52460D999047B8
:10372000761CBBF10001ABF1010BF4DC6D1C34E73E
:10373000092801000349CA6912F0400FFBD0C2B248
:103740008A62704700100140DFF8EC8082B0D8F840
:1037500000004FF0000510F4003F13D1BFF34F8F6E
:10376000BFF36F8F35480560BFF34F8FBFF36F8F87
:10377000D8F8000040F40030C8F80000BFF34F8FC5
:10378000BFF36F8FD8F8000043F6FF742C4E10F48F
:10379000803FA6F104071FD13560BFF34F8F386813
:1037A000284BC0F34E32C0F3C90C04EA4211604604
:1037B00041EA8079C3F80090401EF9D2521EF4D23B
:1037C000BFF34F8FD8F8000040F48030C8F80000F5
:1037D000BFF34F8FBFF36F8FFCF78EFFFFF70EFA2B
:1037E000FFF72EF8FFF74AF8FFF77EF83560BFF3D2
:1037F0004F8F3868144AC0F34E3CC0F3C90504EA41
:103800004C11284641EA80731360401EFAD2BCF185
:10381000010CF4D2BFF34F8FBFF36F8F0B4905201C
:103820000BA34FF40062CDE900010C4808A101F0A0
:1038300043F800F0ADFDFEE714ED00E050EF00E0CE
:1038400084ED00E060EF00E06CEF00E00400002495
:103850007374617274207461736B0000D13E000850
:103860002DE9F041204E0F460446F5683068001DF2
:1038700000F08CFB48B93068012190F82C0001FA67
:1038800000F0316921EA00003061B4F1FF3F15D149
:10389000A7B1164932684868906033688268DA6078
:1038A0003268131D826853603268121D826030686E
:1038B00041610868401C0860BDE8F08130682C4414
:1038C000AC424460306800F1040104D2F06BBDE802
:1038D000F04100F097BBB06B00F094FBB06AA042DF
:1038E00088BFB462BDE8F081380000241C51002478
:1038F0000E4D0F4E68680028FCD000F0ADFBF0685C
:10390000C468201D00F042FBA868401EA8606868DB
:10391000401E686000F0C4FB206B00F0D9FB20461D
:1039200000F0D6FB68680028E7D1E3E73800002400
:103930000851002416494DF8044D0A68824238BFE8
:103940001146FAD34B6803EB010C844503D1406860
:10395000184448600846436803EB000C944518BFC0
:1039600002600ED1DFF82CC0DCF800C0624508BF51
:10397000C0F800C005D052681A4442600A68126854
:103980000260814218BF08605DF8044B7047000078
:1039900024000024100000242DE9F0410446806931
:1039A0000D46184F284416462461B042606004D882
:1039B000A069711B814204D213E0B5421BD9854234
:1039C00019D8A069216A054420468847A069246166
:1039D00041192846B142616009D8A069711B814232
:1039E000EFD23869211DBDE8F04100F00BBBB042B9
:1039F00001D98D42E5D9F868211DBDE8F04100F0FC
:103A000001BB0000780000242DE9F047064601F0D4
:103A10008DF81A4D0746A868874228BF002027D294
:103A2000E8680068F8B1E8684FF0FF39C068C4681A
:103A3000D0F80080201D00F0A9FA94F8280010F0BA
:103A4000040F04BF00F0FE0084F8280004D04A46AA
:103A500041462046FFF7A0FF216A20468847E868D4
:103A600000680028DFD1D5E90310C5E90301012072
:103A700030603846AF60BDE8F08700007800002471
:103A80000A484068B0F1FF3F4FF0500072B680F333
:103A9000118805D0BFF34F8FBFF36F8F62B6FEE77B
:103AA000BFF34F8FBFF36F8F62B6FEE72C00002489
:103AB000DFF85CB284B0974E4FF0805AF06801682E
:103AC00000290CBF01270027002F06BFC06805682A
:103AD000002500F09DFC6846FFF796FF044600981D
:103AE00000284CD001F046F930680022694600F009
:103AF000DBFD0028E2D000980028C0F20081029C83
:103B0000606900281CBF201D00F040FA01F00EF88B
:103B10000746B068874226D2F0680068F8B1F068BE
:103B20004FF0FF39C068C568D0F80080281D00F04C
:103B30002DFA95F8280010F0040F04BF00F0FE00E5
:103B400085F8280004D04A4641462846FFF724FF5E
:103B5000296A28468847F06800680028DFD1D6E93E
:103B60000310C6E90301B76000980A2880F0C780F7
:103B7000DFE800F0C53A3A9198B93A3A9198AFB176
:103B80003069006800280CBF01270027291B306816
:103B90003A4600F015FB01F0EDF80028A4D1CBF86F
:103BA00000A0BFF34F8FBFF36F8F9DE7A542EDD805
:103BB00001F0E0F8F0682746C068C468201D00F0F6
:103BC000E5F994F8280010F0040F04BF00F0FE009F
:103BD00084F8280004D03A4629462046FFF7DCFE48
:103BE000216A204688477FE794F8280040F00100CA
:103BF00084F828000198A169246101446160B942F8
:103C000004D8391AA069814204D25CE0B84267D96D
:103C1000884265D894F8280010F0040F04BF00F023
:103C2000FE0084F8280032D00199A0690D182844BC
:103C30006060B84209D8A069791B814238BF211D54
:103C400009D21AE000F0DEF959E0BD4201D98542FF
:103C500001D9211D18E0A069216A05442046884742
:103C6000A169204624614A192946BA42626006D8F1
:103C70008269791B9142EED2011D306905E0B9429B
:103C800001D99542E7D9011DF06800F0BBF9216A1E
:103C90002046884733E094F8280000F0FE0084F8BE
:103CA00028002CE094F8280040F0010084F8280057
:103CB0000198A06150B138442461874260600FD3FD
:103CC000A06900281BD93069211DBBE7502072B6BE
:103CD00080F31188BFF34F8FBFF36F8F62B6FEE79B
:103CE000F068211DAEE794F8280010F0020F0DBF18
:103CF000204600F0FE0084F8280000F0E9F90022D8
:103D00003068694600F0D0FC00287FF4F4AED5E6B8
:103D100004ED00E07800002470B5044600F09CF942
:103D200094F94550002D0DDD606A58B104F124006E
:103D300000F0ACFF002818BF00F0DCFA681E45B2A6
:103D4000002DF1DC4FF0FF3684F8456000F0A8F953
:103D500000F082F994F94450002D0DDD206958B12E
:103D600004F1100000F092FF002818BF00F0C2FA22
:103D7000681E45B2002DF1DC84F84460BDE8704057
:103D800000F08EB92DE9F0410026054600F040FB19
:103D9000414FB04607F114023868D8B93F4844F69D
:103DA000206110F0070F05D03C4BC01D20F007002C
:103DB000C31AC91A0144083921F00701C2E90008F1
:103DC0000B1A3960C1F80480C1F80080C0E9001303
:103DD000BB607B6045B105F00700C0F11000C14336
:103DE0008D4294BF0544002515F0004F3DD1002DB4
:103DF0003BD0786885429CBF2949146835D86068F3
:103E0000A84205D2206800281CBF21460446F6D1EE
:103E10003868844229D0086800F1080620680860E4
:103E20006068411B102911D9601910F0070F09D0E3
:103E3000502072B680F31188BFF34F8FBFF36F8F9E
:103E400062B6FEE741606560FFF774FD61687868FF
:103E5000401A7860BA68824288BFB86041F000407A
:103E6000C4E90080F868401CF86000F083FF002E71
:103E700008BF00F09FF816F0070F04BF3046BDE8FA
:103E8000F081502072B680F31188BFF34F8FBFF3DB
:103E90006F8F62B6FEE70000100000243402002499
:103EA000240000244FF0807C40F804CC074B21F024
:103EB000010140F8081C40F80C3C40F8202C6FF041
:103EC000020240F8242C443870470000813A000870
:103ED0004DF804ED83B001460CA0FFF72FFB00F076
:103EE000BBF80E4904200EA30202CDE900010F48E1
:103EF0000BA100F0E1FC00F0D3F80DA0FFF71EFBD2
:103F000003B000205DF804EB00F080B92573206356
:103F10007265617465642E0A0000000000000024D0
:103F200074657374207461736B000000413F000876
:103F30006578697420637269746963616C0A000052
:103F400082B000F0F3FD0090FDF70CFE014604A0E6
:103F5000FFF7F4FAC821684600F08AFDF4E7000094
:103F60005468697320697320746573742074617375
:103F70006B2173797374656D206672657175656EFA
:103F800063652069733A25640A000000D0E90132B4
:103F900001699A60D0E901235A604A68824204BFED
:103FA00082684A60002202610868401E0860086852
:103FB0007047000001A0FFF7C1BA00004D616C6CB2
:103FC0006F63206661696C65640A000001A0FFF7F9
:103FD000B5BA0000257320737461636B206F76653A
:103FE0007220666C6F770A004FF0FF3200F1080113
:103FF000C0E90112C1600161002101607047002128
:10400000016170474DF8044DD1F800C0BCF1FF3F8D
:104010000CBF026900F1080205D053681C686445B2
:1040200098BF1A46F9D953684B6099608A6051600D
:1040300008610168491C01605DF8044B70474268E3
:104040004A6093688B609368596091600861016869
:10405000491C016070470000502072B680F311883F
:10406000BFF34F8FBFF36F8F0B4962B64868401C98
:104070004860012818BF70470848006810F0FF0F1B
:1040800008BF7047502072B680F31188BFF34F8F7E
:10409000BFF36F8F62B6FEE72C00002404ED00E052
:1040A0000A49486838B1401E486018BF7047002070
:1040B00080F311887047502072B680F31188BFF3E7
:1040C0004F8FBFF36F8F62B6FEE700002C00002415
:1040D000002808BF704770B5A0F1080450F8040C20
:1040E00010F0004F0BD0216899B1502072B680F3C8
:1040F0001188BFF34F8FBFF36F8F62B6FEE750207A
:1041000072B680F31188BFF34F8FBFF36F8F62B623
:10411000FEE720F00040606000F07AF9074D60682B
:104120006968084468602046FFF704FC2869401C61
:104130002861BDE8704000F01DBE000010000024A2
:104140004FF0E0200021016181614FF47A7204494F
:104150000968B1FBF2F1491E416107210161704715
:1041600008000024002330B498B1002919BF0022B0
:10417000124C30BC704704EBC20CDCF80450854292
:1041800011D104EBC203002B18BFC3E9001030BCEF
:104190007047502072B680F31188BFF34F8FBFF382
:1041A0006F8F62B6FEE7002B02BF54F83250002D2D
:1041B000634602F10102082ADDD3E4E758510024E6
:1041C00070B515460E460446FFF746FF94F94400C5
:1041D000B0F1FF3F4FF0000008BF84F8440094F9AD
:1041E0004510B1F1FF3F08BF84F84500FFF758FFC5
:1041F000A06B28B904F124002A46314600F09CF84F
:104200002046BDE87040FFF787BD000070B504464A
:10421000FFF722FF2F4D002C08BF2C68201DFFF751
:10422000B5FE68B9E06A2C4900EB800251F8221013
:1042300031B9012101FA00F0296921EA0000286161
:10424000A06A00281CBF04F11800FFF79FFE686AEF
:10425000401C68622868844225D12048211DFFF750
:10426000EEFE6868401C6860FFF71AFF2868844209
:1042700005D0206BFFF72CFF2046FFF729FF686968
:10428000002808BF70BD2868844218BF70BD686BE5
:10429000B8B1502072B680F31188BFF34F8FBFF3CF
:1042A0006F8F62B6FEE7A868401EA860A86B006822
:1042B00000280FBF4FF0FF30A86BC0680068A862ED
:1042C000D2E707494FF080500860BFF34F8FBFF32C
:1042D0006F8F70BD38000024545000240851002412
:1042E00004ED00E002490A6A0260C9684160704753
:1042F0003800002401490120C861704738000024BB
:1043000010B50C4658B10B4A126802F11801FFF7BC
:1043100079FE2046BDE810400121FFF7A1BA5020E8
:1043200072B680F31188BFF34F8FBFF36F8F62B601
:10433000FEE70000380000248C4630B4D8B1134B9F
:1043400041681C68E1618C681D682C621C688D687E
:1043500018346C601C6818348C60196888620168B5
:10436000491C0160002A18BF4FF0FF3C114630BCC9
:104370006046FFF775BA502072B680F31188BFF31C
:104380004F8FBFF36F8F62B6FEE700003800002446
:1043900030B51A4883B0002580222B4618A1CDE9FC
:1043A0000050194800F088FA184C012803D100F099
:1043B00087FD012803D0B0F1FF3F14D010E050205A
:1043C00072B680F31188BFF34F8FBFF36F8F62B661
:1043D0004FF0FF30A06201206061E56000F06AF8F4
:1043E000206B03B030BD502072B680F31188BFF34C
:1043F0004F8FBFF36F8F62B6FEE7000064000024AA
:1044000049444C4500000000F13800083800002401
:104410000248416B491C416370470000380000248A
:1044200010B5224C606B00281EBF0120E06110BD5A
:104430000020E0612068006B0168B1F1A53F04BF76
:104440004168B1F1A53F07D18168B1F1A53F04BF33
:10445000C068B0F1A53F05D0206800F134012068A4
:10446000FFF7B4FD20691249B0FA80F0C0F11F00D7
:1044700000EB800051F820206AB101EB800000F1D0
:104480000802416849684160914204BFC1684160C7
:10449000C868206010BD502072B680F31188BFF349
:1044A0004F8FBFF36F8F62B6FEE700003800002425
:1044B0005450002430B5314983B000250095087868
:1044C0000290FF20087008788DF804009DF8040021
:1044D0002B4C10F05000207027D09DF8040010F0F5
:1044E000800F11D00098401C00909DF804004000FF
:1044F0008DF804009DF8040010F0800FF2D10098B0
:10450000082808BFA56006D00098C0F10700A06089
:10451000009A042A13D0502072B680F31188BFF39A
:104520004F8FBFF36F8F62B6FEE7502072B680F3F5
:104530001188BFF34F8FBFF36F8F62B6FEE70002A3
:1045400000F4E060A060029808700E48016841F431
:104550007F010160016841F07F410160FFF7F0FDDC
:104560006560FBF7C7FE0848016841F04041016003
:10457000FBF7ACFE03B0002030BD000000E400E01B
:104580002C00002420ED00E034EF00E02DE9F041A4
:10459000050017460E4622D04FF0FF30B0FBF5F075
:1045A00086429CBF05FB06F010F1510F17D8503022
:1045B000FFF7E8FB040008BFBDE8F08104F15000FC
:1045C000002E0CBF2460206020460121C4E90F5654
:1045D00000F010F8204684F84C70BDE8F0815020BF
:1045E00072B680F31188BFF34F8FBFF36F8F62B63F
:1045F000FEE700002DE9F04104000E464FF00107F0
:104600002AD0E06B002843D0BD1E216CB5FBF0F032
:1046100088423DD3FFF720FDD4E90F12206801FB4B
:104620000200A0600020A063491E2068606001FBBA
:104630000200E06084F8445084F84550B6B104F1BB
:104640001000FFF7D1FC04F12400FFF7CDFCFFF7C9
:1046500027FD3846BDE8F081502072B680F31188FE
:10466000BFF34F8FBFF36F8F62B6FEE7206900285C
:10467000EDD004F1100000F009FB0028E7D0094953
:104680004FF080500860BFF34F8FBFF36F8FDEE7AE
:10469000502072B680F31188BFF34F8FBFF36F8F36
:1046A00062B6FEE704ED00E02DE9F74704000F468F
:1046B00083B04FF0000601D057B115E0502072B61C
:1046C00080F31188BFF34F8FBFF36F8F62B6FEE7A1
:1046D000206C48B1502072B680F31188BFF34F8F21
:1046E000BFF36F8F62B6FEE700F012FADFF830A179
:1046F0004FF080594FF0000858B9059848B1502044
:1047000072B680F31188BFF34F8FBFF36F8F62B61D
:10471000FEE7FFF7A1FCA56B15B3226C5AB1E06868
:104720001044E060A168884224BF2068E060014630
:104730003846FBF760FE681EA063206950B104F1A3
:10474000100000F0A3FA28B1CAF80090BFF34F8F11
:10475000BFF36F8FFFF7A4FC06B00120BDE8F08720
:10476000059808B136B109E0FFF79AFC06B00020C1
:10477000BDE8F0876846FFF7B5FD0126FFF790FC1E
:10478000FFF746FEFFF768FC94F94400B0F1FF3FE5
:1047900008BF84F8448094F94500B0F1FF3F08BF9A
:1047A00084F84580FFF77CFC05A9684600F03AF8DC
:1047B00098B12046FFF7B0FA00F0DCFAFFF74CFCA6
:1047C000A06B00280CBF01250025FFF769FC002D18
:1047D0009FD006B00020BDE8F087FFF73DFCA06B3E
:1047E000002814BF00250125FFF75AFC95B1059953
:1047F00004F12400FFF784FD2046FFF78DFA00F056
:10480000B9FA002885D1CAF80090BFF34F8FBFF3E3
:104810006F8F7EE72046FFF77FFA00F0ABFA78E76C
:1048200004ED00E02DE9F04105000C462DD0002CF0
:1048300035D0FFF711FCDFF87CC0DCF80C006B68AA
:104840002268C11AB2F1FF3F08BF002518D02F68B7
:10485000DCF820800026474504D083429CBF012518
:1048600026600DD98A429CBF2660012508D9501ABE
:104870002060DCF820002860DCF80C00686000256F
:10488000FFF70EFC2846BDE8F081502072B680F399
:104890001188BFF34F8FBFF36F8F62B6FEE75020D2
:1048A00072B680F31188BFF34F8FBFF36F8F62B67C
:1048B000FEE70000380000242DE9F84F81469A46B3
:1048C00090009046DDE90A670D460090FFF75AFA1E
:1048D0005FEA000B36D05C20FFF754FA04002ED0BC
:1048E0005C21FBF7A1FDC4F830B0A5220099584621
:1048F000FBF793FD206B6FF0030101EB88010022B1
:104900000844002D20F0070818BF00200BD0211804
:104910002B5C81F83430295C00291CBF401C102816
:10492000F5D384F84320062E10D3502072B680F3BE
:104930001188BFF34F8FBFF36F8F62B6FEE7584603
:10494000FFF7C6FB4FF0FF30BDE8F88FE662201D91
:10495000E664FFF754FB04F11800FFF750FB2461F5
:10496000C6F10601646252464046A1614946FFF71E
:1049700099FA002F206018BF3C60FFF76DFB344FA1
:10498000B868401CB8603868324E10B1786918B306
:1049900028E03C60B868012808BF002522D105EB5B
:1049A000850006EB8000FFF71FFB6D1C062DF6D37C
:1049B0002948FFF719FB2948FFF716FB2848FFF79E
:1049C00013FB2848FFF710FB2748FFF70DFB224891
:1049D000B8631430F86305E03868E16AC06A884259
:1049E00098BF3C60786A0121401C78626064E06A8C
:1049F0003A6981401143396100EB800006EB800089
:104A00004068A0608168E160211D8268516081601A
:104A1000E06A00EB800006EB8001616156F820102F
:104A2000491C46F82010FFF73BFB786960B13868F5
:104A3000E16AC06A884207D20C494FF08050086092
:104A4000BFF34F8FBFF36F8F0120BDE8F88F0000D9
:104A50003800002454500024CC500024E05000249E
:104A6000F4500024085100241C51002404ED00E0FF
:104A700010B503004FF000040DD0B1B12248426BD5
:104A8000EAB1502072B680F31188BFF34F8FBFF3A5
:104A90006F8F62B6FEE7502072B680F31188BFF3C5
:104AA0004F8FBFF36F8F62B6FEE7502072B680F370
:104AB0001188BFF34F8FBFF36F8F62B6FEE7426B73
:104AC000521C4263C26818689042014404D988426B
:104AD00088BF914205D903E0884201D88A4200D2BA
:104AE000012419601CB1881A0021FEF7B9FE00F0FC
:104AF00041F938B905494FF080500860BFF34F8F36
:104B0000BFF36F8F204610BD3800002404ED00E095
:104B100005484169002904BF01207047406B002807
:104B20000CBF022000207047380000240148C068F4
:104B300070470000380000242DE9F007514E002096
:104B4000716B29B1B169491CB161BDE8F0077047CB
:104B5000F1684B1CF3604FF0FF391ED1B16B09684F
:104B600049B1502072B680F31188BFF34F8FBFF365
:104B70006F8F62B6FEE7B16BF26BB263F163316ABD
:104B8000491C3162B16B0968002908BFC6F828903A
:104B900003D0B16BC9680968B162B16ADFF8E88017
:104BA00099429CBF00274FF0010A0CD8B16B0968ED
:104BB00039B1B16BC968C9684A68934213D2B2620D
:104BC00001E0C6F828903168C96A01EB810158F804
:104BD0002110012988BF0120F169002918BF012097
:104BE000BDE8F0077047D1E9024C4A69C4F808C033
:104BF000D1E9024CCCF8044001F1040C546864453E
:104C000004BFCC6854604F611468641E14608A6AE3
:104C100082B1D1E90745A560D1E907456C6001F192
:104C200018055468AC4204BF0C6A54608F62146863
:104C3000641E1460CA6A35690AFA02F42C433461AE
:104C400002EB820208EB820252688A609468CC60B0
:104C50009468C4F804C0C2F808C0CA6A02EB8202B1
:104C600008EB820CC1F814C058F822C00CF1010CFA
:104C700048F822C0C96A3268D26A914288BF0120CE
:104C800094E70000380000245450002430B4C06879
:104C9000C06800282ED0D0E90732816A9A60D0E936
:104CA00007235A6000F118024B68934204BF036A5D
:104CB0004B60002484620B685B1E0B602A4B596BAF
:104CC0004FF0010C01B3294C6168C1618D68056228
:104CD0008D686A608A6084622168491C2160C06AAC
:104CE0001968C96A884286BF0120C3F81CC0002029
:104CF00030BC7047502072B680F31188BFF34F8FDD
:104D0000BFF36F8F62B6FEE7D0E902524169AA6035
:104D1000D0E902256A60021D4D68954204BFC5684E
:104D20004D6044610C68641E0C60C16A1D690CFA18
:104D300001F42C431C610E4C01EB810104EB810159
:104D4000496881608D68C5608D686A608A60C16AE3
:104D500001EB810104EB8102426154F82120521CD5
:104D600044F82120BBE7000038000024F450002460
:104D7000545000242DE9F0474D4E0025706B38B19A
:104D8000FFF76AF9706B401E7063706B50B189E079
:104D9000502072B680F31188BFF34F8FBFF36F8F2F
:104DA00062B6FEE7B06800287CD0DFF80891D9F839
:104DB000000000270124002818BFDFF8FCC059D0EC
:104DC000D9F80C00C168D1E90732886A9A60D1E944
:104DD00007235A6001F1180342689A4204BF0A6A25
:104DE00042608F620268521E0260D1E90232486955
:104DF0009A60D1E902235A600B1D42689A4204BFAF
:104E0000CA6842604F610268521E0260C86AD6F8E2
:104E1000108004FA00F242EA0802326100EB8000DE
:104E20000CEB800042688A609068C86090684360BC
:104E30009360C86A00EB80000CEB80024A615CF86A
:104E40002020521C4CF82020C86A3268D26A904256
:104E500088BFF461D9F800000028B1D151B1B16B1D
:104E60003046096800290FBF4FF0FF31816BC968D8
:104E700009688162D6F81880B8F1000F08D0FFF7F2
:104E80005BFE002818BFF461B8F10108F7D1B761E3
:104E9000F06938B10949012528070860BFF34F8F31
:104EA000BFF36F8FFFF7FCF82846BDE8F0870000DE
:104EB00038000024F45000245450002404ED00E095
:104EC00010B582B0FFF7C8F81A4C2068A0B91A488C
:104ED000FFF78AF81948FFF787F817480022E060C3
:104EE0000C21143020611020FFF750FB00282060B7
:104EF0001CBF13A1FFF736F9FFF7D2F8206870B195
:104F00001149032000234FF40072CDE9000111483C
:104F10000EA1FFF7D1FC00281CBF02B010BD50202D
:104F200072B680F31188BFF34F8FBFF36F8F62B6F5
:104F3000FEE7000078000024305100244451002492
:104F4000546D7251000000007C000024546D7220EA
:104F500053766300B13A0008000000000102030428
:104F6000010203040607080901000200040006000C
:104F700008000A000C001000200040008000000122
:104F800001010103070100000804020408010101F6
:104F9000B04F0008000000249C0000005C350008B1
:104FA0004C5000089C000024FC5400006C350008A4
:104FB00000000000000000000090D0030090D0032B
:104FC00000000000000000000000000000000000E1
:104FD00000000000000000000000000000000000D1
:104FE000AAAAAAAA00000000000000000000000019
:104FF00000000000000000000000000000000000B1
:1050000000000000000000000000000000000000A0
:10501000000000000000000005000000000000008B
:105020000000000000000000000000000000000080
:105030000000000000000000000000001000000060
:0C50400001000000000000000000000063
:040000050800029954
:00000001FF
